:020000040800F2
:1000000000500020851200088112000881120008AB
:10001000811200088112000881120008000000000F
:100020000000000000000000000000008112000835
:10003000811200080000000081120008210300085E
:1000400000000000000000000000000000000000B0
:1000500000000000000000000000000000000000A0
:100060000000000000000000000000000000000090
:100070000000000000000000000000000000000080
:100080000000000000000000000000000000000070
:100090000000000000000000000000000000000060
:1000A0000000000031030008000000000000000014
:1000B00000000000490300080000000000000000EC
:1000C0000000000000000000000000000000000030
:1000D0000000000000000000000000000000000020
:1000E0000000000000000000000000000000000010
:1000F0000000000000000000000000000000000000
:1001000000000000000000000000000000000000EF
:1001100000000000000000000000000000000000DF
:1001200000000000000000000000000000000000CF
:10013000054A013810F8013F03B9704711680906F4
:10014000FCD55360F6E700BF00380140034A116850
:1001500013685B1A8342FBD3704700BF483C002002
:100160002DE9F04F00244FF0020A87B0644D04944B
:100170008DF814402B68DFF88C81DFF88C9123F028
:10018000F00343F07003C8F80040C9F800402B604A
:100190005E4BC5F814A0064618680F46FFF7D6FF59
:1001A000C5F810A02B6823F0F00343F040032B6048
:1001B0004FF080431A6A22F010021A629A6922F400
:1001C0007F4242F480729A611A6A42F030021A62E7
:1001D0009A6B1C6172B6D8F800E0A446714643F6EB
:1001E000982B5A6ADFF828A192B2292903DDECB1D5
:1001F000C8F800101AE01869400742BF986B012444
:100200002AF81100586A48BF013180B2821A92B2AE
:100210009444DC452DD914B18E46C8F80010BEF1C7
:10022000000F14BF0B230123C9F8003062B64FF052
:100230008042136A23F0100313622B6823F0F0034B
:1002400043F070032B6013695B0506D531493248D2
:1002500003F0C6FA3048FFF76BFFD8F80030282BC0
:1002600009DCD9F80000002846D0404207B0BDE8BC
:10027000F08F0246B9E7293B18BF0123002024492B
:1002800001EB430104460B4606AA02EBE4041B887B
:100290004A880130D21A14F8083C92B25B006E2AE8
:1002A00088BF43F00103282801F1020104F8083C4B
:1002B000E8D19DF810309DF811009DF812109DF8BE
:1002C00013401A180A449DF814502244D2B2AA428C
:1002D0000ED0CDE90001114A6021CDE902450E485A
:1002E00003F01CFB0C48FFF723FF6FF00300BDE792
:1002F0003B6000203160B9E76FF00A00B6E700BF4D
:1003000000080140883B0020843B002010000020B2
:100310008C3B002094460008E43B0020AB460008DC
:10032000024A136801331360704700BF443C002049
:100330000022034B1A61034A1368013313607047AC
:10034000002C0140483C0020002230B5134B1A61BC
:10035000134B1A78012A15D1124A134CD16C20681C
:100360000909451C2560114C2154916841F4800114
:1003700091600D4A11680E4A1268914224BF002212
:100380001A7030BD1A78022AFBD107490A68501C3E
:1003900008600649895C074A5163EAE700040040A7
:1003A000C804002000240140D0040020D404002010
:1003B000CC0400200008004007B503460091054A20
:1003C0006021054803F0AAFA034803B05DF804EB86
:1003D000FFF7AEBED2460008E43B002012222DE912
:1003E000F04F9D4B9DB01A609C4AA3F580535A6014
:1003F0001A6842F080721A601A689501FCD55A6832
:1004000042F002025A605A6802F00C02082AFAD13D
:100410009A69934942F01D029A61924A924D116085
:100420005168072621F47F6141F496615160D168DB
:10043000002041F05201D160D2F8001440F2E737B9
:1004400021F0706141F03061C2F80014D2F8041458
:100450004FF0E02421F47F0141F40801C2F80414B4
:10046000D2F80C144FF0FF0C41F44051C2F80C14B8
:100470006A6840F22B2122F4700242F400126A6092
:100480004FF400522A619A6942F480429A61774A95
:10049000916042F20C01D160DA694FF0804142F084
:1004A0000702DA614FF6FF728E62CA6201224A6168
:1004B0000A60C1F82804C1F82C74C1F80C244FF06C
:1004C0000051C4F800116A498862C1F82CC04FF08D
:1004D000800CC1F834C04FF0680CC1F818C04FF060
:1004E000810C0A624A61C1F800C041F63F71616146
:1004F000A0612661996941F4006199615D498E624C
:10050000CF624A610861CA600A604FF00071C4F8A6
:100510000011996941F4007199610421564B1961E8
:1005200058639A600A900A9AB2F57A7FC0F2908076
:100530009A6842F008029A604F4B9A681407FCD4FC
:100540009A6842F004029A609A685007FCD49A684C
:10055000062742F4F0129A6000F0B2FC474948487E
:1005600003F03EF94648FFF7E3FD464E01224649B7
:10057000444802F0DFFA0446002840F099804349DD
:100580003F4803F02DF93E48FFF7D2FD96F80232BE
:100590003F4A0493D6F8283260210393D6F82432D8
:1005A00037480293D6F820320193D6F814320093DC
:1005B00096F8003203F0B2F93148FFF7B9FD122185
:1005C000304801F01BF860210346324A2C4803F002
:1005D000A5F92B48FFF7ACFD2F49294803F000F996
:1005E0002748FFF7A5FD0123D6F820222B4900203C
:1005F00000F066FD23466021294A0090204803F060
:100600008DF91F48FFF794FD0027DFF890806021E7
:1006100018F8013B234A1A4803F080F901371848BB
:10062000FFF786FD0C2FF2D11F49154803F0D8F8CB
:100630001348FFF77DFD631C022B4FF00104D2D15C
:100640001A490F4803F0CCF80D48FFF771FD3FE061
:100650000A9A01320A9266E70020024000843800BC
:100660007044B3B800080140001001400038014058
:1006700000080040002C014000240140EF46000823
:10068000E43B002098020020AA46000844470008E6
:1006900069470008B2470008DC47000870000020E6
:1006A0002B48000848480008A84600084E480008A3
:1006B00023466021AC4AAD4803F030F9AB48FFF760
:1006C00037FD4FF47A70FFF741FD013F7FF44EAFE5
:1006D00064224FF0804CA64CA64FD4F80080D7F887
:1006E0000090DCF82400A44980B2DCF824301B1A06
:1006F0009BB2B3F57A7F01D20139F6D1013AF0D13C
:100700004FF080435B6A9D481FFA83FAFFF710FDA4
:100710009B4A13685906FCD54FF080435B6A602101
:10072000A3EB0A03974A9BB2904803F0F7F88F486F
:10073000FFF7FEFC23683A68A3EB0803A2EB09026B
:10074000602100928948904A03F0E8F88748FFF753
:10075000EFFC2368DFF834B2A3F57A6308932368CB
:1007600009932368099A9B1AB3F57A7F0ED32368FD
:10077000226809934FF47A736021B2FBF3F37B484C
:10078000834A03F0CBF87948FFF7D2FC089A236834
:100790009B1A41F28732934253D9236811A90893D7
:1007A0004FF400530BA86B61FFF7DAFC431C0746BC
:1007B00024D14FF00008DFF8DC91DFF8DCA14FF422
:1007C0009660FFF7C3FC39F8023B11A90BA8CAF8E1
:1007D0000030FFF7C5FC00906021DAF800306F4A66
:1007E0000746624803F09AF808F101085F48FFF7EE
:1007F0009FFCB8F1030F01D0781CE0D0002F56D039
:10080000DFF89C816021D8F80030664A0093574891
:100810003B4603F083F85548FFF78AFC0127DFF8D1
:100820008891D8F800309F4201DA0C2F2DD15F4912
:100830004E4802F0D5FF4D48FFF77AFC4FF40053C5
:100840002B61DBF80830D90440F10581DBF8083072
:100850009A0486D41E20FFF779FCDBF808309A044E
:100860003FF57FAF4FF400530122514951486B616E
:1008700002F0A6F94F4F002800F08E814C4B4E4AF3
:1008800060213A4803F04AF8C0E14A46B9F802301C
:10089000128860219B1A9BB2484A344803F03EF804
:1008A0003248FFF745FC09F102090137B9E74FF477
:1008B0007A732268DDF82C80DDF84490B2FBF3F304
:1008C00060213F4ACDE9008928483A4F03F026F8D5
:1008D0002648FFF72DFC122238463A4902F070F9FB
:1008E00008B13949A4E7FB68384A00933B696021A5
:1008F0001E4803F013F81D48FFF71AFCD7E903233D
:10090000012BDFF8CCA006D0D6F814128B4202D20D
:10091000002B65D18AB16021009214482D4A02F063
:10092000FDFF1248FFF704FC0023C7E90333BB6057
:100930007B61BB7943F02003BB712022244B264905
:100940001C4802F09CFBDAF80020034608B9202A74
:1009500048D000926021214A044802F0DFFF03489A
:10096000FFF7E6FB3EE000BF24470008E43B002021
:10097000483C0020443C0020400D0300844800080F
:100980000038014091480008BE480008000C0140B2
:10099000F8480008984C000810000020054900089D
:1009A000883B0020254900088C3B0020A846000811
:1009B0000000002074020020214B00084F4900086D
:1009C000534900087E490008874900089E490008ED
:1009D00070020020C9490008764C0008024A00084D
:1009E000002AAAD0F9689E4802F060FD4FF47A739D
:1009F00022686021B2FBF3F3CDE90089994A9A4855
:100A000002F08CFF984802F08FFE984B0246804619
:100A10009549934802F033FB034618B9DAF80020F1
:100A2000904507D06021924A8F4802F077FF8E48A8
:100A3000FFF77EFB8A48FF6802F01CFD8D4A8E4B53
:100A40006021002808BF13468C4A009386483B4625
:100A500002F064FFEFE61E20FFF778FBDBF80830BA
:100A6000DB043FF5F3AE4FF40053854F6B613B68F9
:100A70000D215A1C3A608348834A02F04FFF814897
:100A80000BA902F016FE10B93B68632BEFDD40F6B0
:100A9000AC5E4FF47A636021CDE9003E7B4A794B2E
:100AA000714802F03BFF7048FFF742FB002143F220
:100AB000B062774B774F784839601A6040F2CF7256
:100AC000764BDA62826842F48002826059620121C8
:100AD000734A1170196011780129FCD000221A6044
:100AE0006021704A3B68604802F018FF5E48FFF7DB
:100AF0001FFB0A2263495A4802F062F870B16A4942
:100B0000594802F06DFE5848FFF712FB4FF40053AE
:100B10002B61DBF80830D904FBD597E63A68634BC4
:100B200063491193086802F124034968129313ABD7
:100B300003C310204FF00113CDE915034FF47A637E
:100B4000DFF870C1DFF82481CDE917335A4B1B92CF
:100B5000CDE919C311A943462C22414802F08FFA6E
:100B600043463A6855493E4802F089FA07463C48F0
:100B700002F080FC3F4907433F4AFFB2002F08BF05
:100B80000A46D8F800306021CDE9003236483D4BA6
:100B90004B4A02F0C3FEB6E70C2211A93846334B8C
:100BA00002F056F90422474911A802F0EBFD28B9DA
:100BB0000422454913A802F0E5FD88B143492A48BB
:100BC00002F00EFE2848FFF7B3FA254802F052FC67
:100BD0004FF400532B61DBF808309B04FBD5C0E5D4
:100BE0004FF4FA5ADFF88480082238461F4B11A9C7
:100BF00002F02EF918B9D8F80030072B0AD8184897
:100C000002F038FC3249184802F0EAFD1648FFF7B6
:100C10008FFADDE704222F4911A8DDF8489002F091
:100C2000B1FD00285AD14346102238460BA902F0E4
:100C30000FF99DF82E30DDF830A0012B03D19DF87F
:100C40003A30082B01D02449B9E7B9F1100FCBD9BC
:100C5000B96849441039384602F028FCC4E700BF9F
:100C600074020020244A0008E43B002070020020A7
:100C7000304A0008E8460008EB4600084D4A0008E4
:100C80006C00002000000020734A00087F4A000822
:100C9000CC040020D00400200024014000040040C7
:100CA000C8040020AF4A0008DA4A00085249464604
:100CB000EF4A00080100080064617461D404002058
:100CC000F84A0008384B00083D4B0008424B00082A
:100CD0005A4B0008F34A00086C4B000804222149D3
:100CE00011A802F04FFD0790002837D143F2B067FA
:100CF0004F4528BF4F4660211B4B1C4ACDE900A73A
:100D00001B4802F00BFE1A48FFF712FA3A46194B3D
:100D100019491A4802F09CF8184802F0ABFB079AF0
:100D2000174B18491A60D8F8003002200B60164B98
:100D3000164AB3FBFAF3013BD362079B5362144B91
:100D400018700120106018780228FCD0002313606E
:100D50008022104B5A630B680F4A91E5B9684944E9
:100D600079E700BF8F4B000800000020944B00087B
:100D7000E43B002070020020D40400207402002014
:100D8000D0040020CC04002000127A0000040040AF
:100D9000C804002000080040C14B0008002382B0B6
:100DA0000193019B032B01DD02B07047019B0133CE
:100DB000F6E7000038B50246082400201049114D1E
:100DC000802312F0800F14BF0B614B612B6852001F
:100DD000D2B20BB1FFF7E2FF20230B612B680BB1FE
:100DE000FFF7DCFF4000C3B28868013CC0F380100D
:100DF00040EA03004FF020034B61E1D138BD00BF52
:100E0000000801401400002070B50446074D2E680C
:100E1000FF20FFF7CFFFFF2805D02B689B1BA342C5
:100E2000F6D3002070BD0120FCE700BF483C002045
:100E30001022024BFF201A61FFF7BCBF00080140DF
:100E4000020638B504460D4606D500213720FFF7C7
:100E5000F7FF01282ED82924FFF7EAFF1022174BAD
:100E6000FF205A61FFF7A6FF3220FFF7CDFF44F0C5
:100E70004000FFF79FFF280EFFF79CFFC5F30740D8
:100E8000FFF798FFC5F30720FFF794FFE8B2FFF7DD
:100E900091FF84B1082C0CBF87200120FFF78AFF47
:100EA0000A24FF20FFF786FF030603D5013C14F058
:100EB000FF04F6D138BD9520F0E700BF00080140DF
:100EC0000B4A936943F004039361A2F584321368DB
:100ED0009BB243F0605343F44C131360D36843F068
:100EE0004003D3602023536110231361704700BF78
:100EF0000010024001232DE9F743002840F0BE8096
:100F000010220A245E4E33605E4B1A61FF20013CC2
:100F1000FFF750FF14F0FF04F8D1FF20FFF74AFF5E
:100F200001465948FFF748FA0A2500210846FFF70D
:100F300087FF013D15F0FF05044601D00128F4D1DB
:100F400021465248FFF738FA012C11D00024504BAB
:100F50001C70FFF76DFF4F4B002C00F08D800022BE
:100F60001878326000F0FE00187003B0BDE8F0831E
:100F7000494D4FF4D5710820D5F80080FFF760FF88
:100F8000074601464548FFF717FA012F3FD101AF49
:100F9000B9460424FF20FFF70DFF013C14F0FF04C5
:100FA00009F8010BF6D19DF80630012BCED19DF842
:100FB0000730AA2BCAD12B68A3EB0803B3F57A7FBD
:100FC0001DD32B68A3EB0803B3F57A7FBED20021B3
:100FD0003A20FFF735FF0028B8D10424FF20FFF79F
:100FE000E9FE013C14F0FF0407F8010BF6D19DF86F
:100FF000043013F0400F0CBF04240C24A7E74FF07B
:101000008041A920FFF71CFF0028D4D1D9E7002197
:10101000A920FFF715FF01289CBF02242048214684
:101020008ABF2048A927274640F6B739FFF7C4F9F9
:1010300000213846FFF704FF014620B12B68A3EBDF
:1010400008034B45F4D91848FFF7B6F94FF400717F
:101050001020FFF7F5FE014607461448FFF7ACF9EC
:1010600040F6B7322B68A3EB080393423FF66EAF0E
:10107000002F7FF46BAF6AE7012075E7184674E72D
:101080001400002000080140EC4B00080B4C000845
:101090004C3C002018000020483C0020104C000868
:1010A000D94B0008E34B0008154C00081A4C000807
:1010B00010B9024B187870470120704718000020C3
:1010C0002DE9F8430D4616461C4600283FD1002B5B
:1010D0003DD0214B1B78DB073BD4204B204F1B78A6
:1010E00013F0080308BF5602002B14BF4FF001088D
:1010F0004FF4007831461120FFF7A2FE58B9D7F817
:101100000090FF20FFF756FEFF280BD13B68A3EBB2
:101110000903C72BF5D9FFF78BFE201E18BF01204E
:10112000BDE8F883FE28F6D105F50079FF20FFF72A
:1011300041FE05F8010B4D45F8D1FF20FFF73AFEBF
:10114000FF20FFF737FE013C4644D3D1E3E70420FC
:10115000E6E70320E4E700BF180000204C3C002035
:10116000483C00202DE9F0470E4615461C46002855
:101170005DD1002B5BD0304B1B78DB0759D42F4F50
:101180003B7813F0080308BF5502002B14BF4FF043
:1011900001084FF4007829461820FFF751FE014658
:1011A000B0B12748FFF708F9FFF742FE25483B7822
:1011B00013F0080F0CBF4FF400730123B5FBF3F1DC
:1011C000C9B2FFF7F9F8201E18BF0120BDE8F0876B
:1011D0004FF4FA70FFF718FEE8B1FE20FFF7EAFDC2
:1011E00006F1FF3906F2FF1A19F8010FFFF7E2FDC9
:1011F000D145F9D1FF20FFF7DDFDFF20FFF7DAFD34
:10120000FF20FFF7D7FD00F01F03052B014605D097
:101210000D48FFF7D1F80D48E9B2C3E7013C06F5E8
:1012200000764544B7D1FFF703FE0948BFE7042025
:10123000CCE70320CAE700BF180000204C3C002088
:101240004B4C0008204C0008554C00085F4C00082F
:10125000364C0008084310B50DD11022074B4FF44F
:10126000FA705A61FFF7D0FD0446FFF7E1FD84F004
:101270000100C0B210BD0420FCE700BF000801401F
:10128000FEE7000008B50A4A0A4B0B498B4207D318
:1012900000210A4B0A4A934207D3FFF79FF8FEE763
:1012A00052F8040B43F8040BF0E743F8041BF2E791
:1012B000744D0008000000206C0000206C0000202D
:1012C000683C002080B487B000AFF860B9607A60F5
:1012D000FB687B61BB683B6107E03A69531C3B617B
:1012E0007B69591C796112781A707B685A1E7A6082
:1012F000002BF2D100BF00BF1C37BD4680BC704739
:1013000080B487B000AFF860B9607A60FB687B6139
:1013100005E07B695A1C7A61BA68D2B21A707B68A0
:101320005A1E7A60002BF4D100BF00BF1C37BD46A7
:1013300080BC704780B489B000AFF860B9607A6053
:10134000FB68FB61BB68BB6100237B6100BF7B68FE
:101350005A1E7A60002B0DD0FB695A1CFA611B786B
:101360001946BB695A1CBA611B78CB1A7B617B6931
:10137000002BECD07B6918462437BD4680BC7047F3
:1013800080B483B000AF7860396002E07B680133DD
:101390007B607B681B78002B05D07B681B781A4626
:1013A0003B689342F2D17B681B7818460C37BD46E8
:1013B00080BC704780B586B000AF78600023FB73B7
:1013C0007B6893F80432002B38D07B68D3F82C323A
:1013D0007B617B6893F80102796801237A69FFF7E2
:1013E000C1FE0346002B02D00123FB7326E07B687D
:1013F000002283F804227B68D3F820327A69D21A5B
:101400007B68D3F818329A4218D27B6893F803327B
:101410003B6110E07B68D3F818327A6913447B6132
:101420007B6893F80102796801237A69FFF79AFED5
:101430003B69013B3B613B69012BEBD8FB7B1846C9
:101440001837BD4680BD80B584B000AF7860396084
:101450000023FB737B68D3F82C323A689A421BD086
:101460007868FFF7A7FF0346FB73FB7B002B13D1C4
:101470007B6893F80102796801233A68FFF720FE40
:101480000346002B04D04FF0FF333B600123FB7376
:101490007B683A68C3F82C22FB7B18461037BD46A0
:1014A00080BD80B584B000AF78607868FFF782FFB8
:1014B0000346FB73FB7B002B40F09B807B6893F81B
:1014C0000032032B40F088807B6893F80532012BB3
:1014D00040F082807B684FF4007200211846FFF7CD
:1014E0000FFF7B68552283F8FE217B68AA2283F8D0
:1014F000FF217B6852221A707B6852225A707B68E7
:1015000061229A707B684122DA707B68722283F8CC
:10151000E4217B68722283F8E5217B68412283F80D
:10152000E6217B68612283F8E7217B68D3F81032DB
:10153000DAB27B6883F8E8217B68D3F810329BB27B
:101540001B0A9BB2DAB27B6883F8E9217B68D3F887
:1015500010321B0CDAB27B6883F8EA217B68D3F87F
:1015600010321B0EDAB27B6883F8EB217B68D3F86C
:101570000C32DAB27B6883F8EC217B68D3F80C324A
:101580009BB21B0A9BB2DAB27B6883F8ED217B68C1
:10159000D3F80C321B0CDAB27B6883F8EE217B683F
:1015A000D3F80C321B0EDAB27B6883F8EF217B682C
:1015B000D3F81C325A1C7B68C3F82C227B6893F842
:1015C000010279687B68D3F82C220123FFF7CAFD5A
:1015D0007B68002283F805227B6893F801320022A1
:1015E00000211846FFF736FE0346002B01D00123E9
:1015F000FB73FB7B18461037BD4680BD80B483B0BB
:1016000000AF786039603B68023B3B607B68D3F891
:101610001432023B3A689A4201D300230AE07B6805
:1016200093F802321A463B6803FB02F27B68D3F858
:101630002832134418460C37BD4680BC704780B52D
:1016400086B000AF786039603B68012B05D97B68B4
:10165000D3F814323A689A4202D301237B61A3E0A3
:101660004FF0FF337B617B6893F80032032B68D027
:10167000032B00F38F80012B02D0022B3FD089E097
:101680003B68FB60FB685B08FA681344FB607B689F
:10169000D3F82022FB685B0A134419467868FFF7E9
:1016A000D2FE0346002B78D1FB685A1CFA60C3F3C4
:1016B00008037A68D35CBB607B68D3F82022FB68A0
:1016C0005B0A134419467868FFF7BDFE0346002BFA
:1016D00065D1FB68C3F308037A68D35C1B02BA6860
:1016E0001343BB603B6803F00103002B02D0BB68CF
:1016F0001B0902E0BB68C3F30B037B6154E07B680A
:10170000D3F820223B681B0A134419467868FFF778
:101710009AFE0346002B44D13B685B0003F4FF7341
:101720007A6813443B613B6901331B781BB21B028F
:101730001AB23B691B781BB213431BB29BB27B618D
:1017400032E07B68D3F820223B68DB09134419465A
:101750007868FFF778FE0346002B24D13B689B0096
:1017600003F4FE737A6813443B613B6903331B78CF
:101770001A063B6902331B781B041A433B69013389
:101780001B781B0213433A691278134323F070430A
:101790007B6109E001237B6106E000BF04E000BF3C
:1017A00002E000BF00E000BF7B6918461837BD4665
:1017B00080BD80B588B000AFF860B9607A60BB6862
:1017C000012B05D9FB68D3F81432BA689A4202D3C8
:1017D0000223FB77F6E0FB6893F80032032B00F05E
:1017E0009E80032B00F3E480012B02D0022B6FD0EC
:1017F000DEE0BB687B617B695B087A6913447B61CF
:10180000FB68D3F820227B695B0A13441946F86809
:10181000FFF719FE0346FB77FB7F002B40F0CB80E0
:101820007B695A1C7A61C3F30803FA681344BB61ED
:10183000BB6803F00103002B0DD0BB691B785BB2C2
:1018400003F00F035AB27B685BB21B015BB2134318
:101850005BB2DBB201E07B68DBB2BA691370FB6894
:10186000012283F80422FB68D3F820227B695B0AFB
:1018700013441946F868FFF7E6FD0346FB77FB7F44
:10188000002B40F09A807B69C3F30803FA68134485
:10189000BB61BB6803F00103002B03D07B681B090D
:1018A000DBB20EE0BB691B785BB223F00F035AB2C8
:1018B0007B681B0A5BB203F00F035BB213435BB29E
:1018C000DBB2BA691370FB68012283F8042279E065
:1018D000FB68D3F82022BB681B0A13441946F8683A
:1018E000FFF7B1FD0346FB77FB7F002B67D1BB6899
:1018F0005B0003F4FF73FA681344BB617B68DAB2E0
:10190000BB691A707B689BB21B0A9AB2BB69013330
:10191000D2B21A70FB68012283F8042252E0FB68FD
:10192000D3F82022BB68DB0913441946F868FFF797
:101930008AFD0346FB77FB7F002B42D1BB689B00EF
:1019400003F4FE73FA681344BB61BB6903331B786D
:101950001A06BB6902331B781B041A43BB690133A7
:101960001B781B021343BA691278134303F07043C8
:101970007A6813437B607B68DAB2BB691A707B6854
:101980009BB21B0A9AB2BB690133D2B21A707B6850
:101990001A0CBB690233D2B21A707B681A0EBB698B
:1019A0000333D2B21A70FB68012283F8042209E0E3
:1019B0000223FB7706E000BF04E000BF02E000BFA7
:1019C00000E000BFFB7F18462037BD4680BD80B5D4
:1019D00084B000AF786039603B68012B05D97B6823
:1019E000D3F814323A689A4202D30223FB7343E0DD
:1019F0000023FB7336E039687868FFF720FEB86093
:101A0000BB68002B35D0BB68012B02D10223FB73CE
:101A100032E0BB68B3F1FF3F02D10123FB732BE03F
:101A2000002239687868FFF7C4FE0346FB73FB7B2E
:101A3000002B20D17B68D3F81032B3F1FF3F0FD0D9
:101A40007B68D3F810325A1C7B68C3F810227B687D
:101A500093F8053243F00103DAB27B6883F805227C
:101A6000BB683B607B68D3F814323A689A42C2D3B1
:101A700002E000BF00E000BFFB7B18461037BD4608
:101A800080BD80B586B000AF786039603B68002BC0
:101A90000FD17B68D3F80C323B613B69002B05D03A
:101AA0007B68D3F814323A699A421CD301233B6114
:101AB00019E039687868FFF7C2FDB860BB68012B90
:101AC00001D8012376E0BB68B3F1FF3F01D1BB68C9
:101AD00070E07B68D3F81432BA689A4201D2BB68CE
:101AE00068E03B683B613B697B617B6901337B61FB
:101AF0007B68D3F814327A699A4207D302237B6158
:101B00007A693B699A4201D9002353E07969786880
:101B1000FFF795FDB860BB68002B0ED0BB68B3F132
:101B2000FF3F02D0BB68012B01D1BB6842E07A695C
:101B30003B699A42D9D100233CE000BF6FF070426C
:101B400079697868FFF735FE0346FB73FB7B002B52
:101B500009D13B68002B06D07A6939687868FFF7AD
:101B600028FE0346FB73FB7B002B1AD17B687A6946
:101B7000C3F80C227B68D3F81032B3F1FF3F18D0C2
:101B80007B68D3F810325A1E7B68C3F810227B683A
:101B900093F8053243F00103DAB27B6883F805223B
:101BA00007E0FB7B012B02D14FF0FF3300E0012364
:101BB0007B617B6918461837BD4680BD80B586B00D
:101BC00000AF786039603B689AB27B68DA807B68E6
:101BD0009B687B617B69012B06D07B681B68D3F80F
:101BE00014327A699A4201D3022368E07B69002BA0
:101BF0000AD17B681B6893F80032032B04D17B6801
:101C00001B68D3F824327B617B69002B0FD17B6882
:101C10001B68B3F808321A463B68934201D302238B
:101C20004DE07B681B68D3F824323B612EE07B6873
:101C30001B6893F802321B01FB601CE07B681B6889
:101C400079691846FFF7FBFC78617B69B3F1FF3FC8
:101C500001D1012333E07B69012B06D97B681B6826
:101C6000D3F814327A699A4201D3022327E03A6802
:101C7000FB68D31A3B603A68FB689A42DED27B6805
:101C80001B6879691846FFF7B9FC38617B687A6987
:101C9000DA603B69002B01D1022310E03B681A098E
:101CA0003B691A447B681A617B681B681A463B686B
:101CB00003F00F035B011A447B685A610023184646
:101CC0001837BD4680BD90B587B000AF78603960E9
:101CD0007B68DB880133FB60FB689BB2002B03D081
:101CE0007B681B69002B01D10423C3E0FB6803F070
:101CF0000F03002B40F0AF807B681B695A1C7B6888
:101D00001A617B68DB68002B0AD17B681B68B3F81B
:101D100008321A46FB689342C0F09D800423A9E074
:101D2000FB681B097A68126892F80222013A134094
:101D3000002B40F090807B681A687B68DB6819464E
:101D40001046FFF77CFC78617B69012B01D80223E8
:101D500090E07B69B3F1FF3F01D101238AE07B680A
:101D60001B68D3F814327A699A4268D33B68002B17
:101D700001D104237EE07B681A687B68DB68194622
:101D80001046FFF77EFE78617B69002B01D10723A7
:101D900070E07B69012B01D102236BE07B69B3F119
:101DA000FF3F01D1012365E07B681B681846FFF700
:101DB00001FB0346002B01D001235BE07B681B681D
:101DC0004FF4007200211846FFF79AFA7B681A68F0
:101DD0007B681C6879691046FFF710FC0346C4F85D
:101DE0002C3200233B6118E07B681B68012283F8DA
:101DF00004227B681B681846FFF7DCFA0346002BB9
:101E000001D0012336E07B681B68D3F82C22013215
:101E1000C3F82C223B6901333B617B681B6893F854
:101E200002321A463B699342DED37B681B68D3F8C3
:101E30002C127B681B683A698A1AC3F82C227B68CB
:101E40007A69DA607B681B6879691846FFF7D6FB08
:101E500002467B681A61FB689AB27B68DA807B680D
:101E60001B681A46FB6803F00F035B011A447B688A
:101E70005A61002318461C37BD4690BD80B584B01A
:101E800000AF7860396000217868FFF797FE03465D
:101E9000FB73FB7B002B2DD10023BB607B681A6892
:101EA0007B681B6919461046FFF7CDFA0346FB73A2
:101EB000FB7B002B1DD17B685B691B78E52B04D075
:101EC0007B685B691B78002B07D1BB680133BB6063
:101ED000BA683B689A4202D10CE00023BB60012142
:101EE0007868FFF7F0FE0346FB73FB7B002BD5D031
:101EF00000E000BFFB7B042B01D10723FB73FB7BBE
:101F000018461037BD4680BD80B485B000AF7860FC
:101F100039603B681B331B781BB21B021AB23B684B
:101F20001A331B781BB213431BB29BB2FB607B6856
:101F300093F80032032B10D13B6815331B781BB28A
:101F40001B021AB23B6814331B781BB213431BB23B
:101F50009BB21B04FA681343FB60FB6818461437F6
:101F6000BD4680BC704780B483B000AF78603960F4
:101F70007B681A333A68D2B21A703B689BB21B0A6C
:101F80009AB27B681B33D2B21A703B681A0C7B681A
:101F90001433D2B21A703B681B0C9BB21B0A9AB264
:101FA0007B681533D2B21A7000BF0C37BD4680BCB7
:101FB000704780B586B000AF786000217868FFF781
:101FC000FDFD0346FB75FB7D002B01D0FB7D37E05B
:101FD0007B681A687B681B6919461046FFF733FA5D
:101FE0000346FB75FB7D002B26D17B685B693B615B
:101FF0003B691B78FB73FB7B002B02D10423FB7531
:102000001DE03B690B331B7803F00803002B09D15B
:102010007B689B690B2219463869FFF78BF90346E9
:10202000002B0BD000217868FFF74DFE0346FB75AF
:10203000FB7D002BCCD002E000BF00E000BFFB7DA9
:1020400018461837BD4680BD80B584B000AF7860B3
:1020500001217868FFF712FF0346FB73FB7B002B1F
:1020600020D17B681A687B681B6919461046FFF708
:10207000EAF90346FB73FB7B002B13D17B685B699A
:10208000202200211846FFF73BF97B6858697B68DE
:102090009B690B221946FFF715F97B681B68012223
:1020A00083F80422FB7B18461037BD4680BD80B400
:1020B00087B000AF786039603B6809333B617B686B
:1020C0001B69002B5CD07B685B69BB6000237B6174
:1020D0001DE07B695A1C7A61BA6813441B78FB7354
:1020E000FB7B202B12D0FB7B052B01D1E523FB735F
:1020F0007B69092B04D13B695A1C3A612E221A7064
:102100003B695A1C3A61FA7B1A7000E000BF7B6998
:102110000A2BDED9BB68DA7A3B681A72BB681F33B8
:102120001B781A06BB681E331B781B041A43BB6856
:102130001D331B781B021343BA681C3212781A43F2
:102140003B681A60BB6819331B781BB21B021AB2BA
:10215000BB6818331B781BB213431BB29AB23B689F
:102160009A80BB6817331B781BB21B021AB2BB687C
:1021700016331B781BB213431BB29AB23B68DA804A
:102180003B6900221A7000BF1C37BD4680BC7047F7
:1021900080B588B000AF786039603B681B68FB6031
:1021A00002E0FB680133FB60FB681B782F2BF8D043
:1021B000FB681B785C2BF4D07B689B69BB600B22AF
:1021C0002021B868FFF79CF80023FB7700233B61D0
:1021D0003B697B610823BB617B695A1C7A61FA68A1
:1021E00013441B78BB77BB7F202B53D9BB7F2F2B8E
:1021F00050D0BB7F5C2B4DD0BB7F2E2B03D03A69D8
:10220000BB699A420FD3BB69082B02D1BB7F2E2B2F
:1022100001D0062373E008233B610B23BB61FB7FE6
:102220009B00FB7735E097F91E30002B08DAFB7F27
:1022300043F00303FB77BB7F803B334AD35CBB7720
:10224000BB7F19463148FFF79BF80346002B01D0AE
:10225000062354E0BB7F402B07D9BB7F5A2B04D801
:10226000FB7F43F00203FB770CE0BB7F602B09D9B7
:10227000BB7F7A2B06D8FB7F43F00103FB77BB7F44
:10228000203BBB773B695A1C3A61BA681344BA7F5A
:102290001A70A1E7FA687B691A443B681A60BB7F31
:1022A000202B01D8042300E00023BB773B69002BDF
:1022B00001D1062323E0BB681B78E52B02D1BB6864
:1022C00005221A70BB69082B02D1FB7F9B00FB77AC
:1022D000FB7F03F00303012B03D1BB7F43F010030B
:1022E000BB77FB7F03F00C03042B03D1BB7F43F0D0
:1022F0000803BB77BB680B33BA7F1A7000231846FC
:102300002037BD4680BD00BFA04C0008204D00080E
:1023100080B584B000AF786039603B681B782F2BA4
:1023200003D03B681B785C2B02D13B6801333B60D8
:102330007B6800229A603B681B781F2B09D800211C
:102340007868FFF73BFC0346FB737B6800225A6109
:1023500041E03B4619467868FFF71AFF0346FB73D6
:10236000FB7B002B32D17868FFF723FE0346FB731B
:102370007B689B69DB7ABB73FB7B002B0AD0FB7B02
:10238000042B25D1BB7B03F00403002B20D10523B4
:10239000FB731DE0BB7B03F00403002B1AD17B68A9
:1023A0005B69BB60BB680B331B7803F01003002B29
:1023B00002D10523FB730EE07B681B68B9681846E1
:1023C000FFF7A2FD02467B689A60C2E700BF02E009
:1023D00000BF00E000BFFB7B18461037BD4680BD44
:1023E00080B487B000AF78604FF0FF333B617B680B
:1023F0001B68002B31D07B681B687B6102E07B6926
:1024000001337B617B691B78202B03D97B691B78A7
:102410003A2BF4D17B691B783A2B1CD17B681B6863
:10242000FB60FB685A1CFA601B78303BBB60BB68E2
:10243000092B0ED8FA687B699A420AD1BB68002B37
:1024400007D1BB683B617B6901337B617B687A693B
:102450001A603B6902E000233B613B6918461C3768
:10246000BD4680BC7047000080B582B000AF786088
:1024700039607B68002283F804227B684FF0FF32CA
:10248000C3F82C2239687868FEF7DDFF0346002B7D
:1024900001D003234BE07B6803F5FF7301331B7806
:1024A0001BB21B021AB27B6893F8FE311BB21343B6
:1024B0001BB2214A934201D0022338E07B683633B5
:1024C00003331B781A067B68363302331B781B04F0
:1024D0001A437B68363301331B781B0213437A6837
:1024E00092F83620134323F07F43144A934201D1DC
:1024F00000231CE07B68523303331B781A067B6889
:10250000523302331B781B041A437B685233013366
:102510001B781B0213437A6892F85220134323F06E
:102520007F43064A934201D1002300E0012318466D
:102530000837BD4680BD00BF55AAFFFF4641540085
:1025400080B596B000AFF860B9601346FB71FB68C8
:1025500000221A60B868FFF743FFF863FB6B002B9B
:1025600001DA0B23ABE29E4AFB6B52F82330BB63CC
:10257000BB6B002B01D10C23A1E2FB68BA6B1A6084
:10258000BB6B93F80032002B1BD0BB6B93F801326E
:102590001846FEF78DFD034687F8373097F8373039
:1025A00003F00103002B0CD1FB79002B07D097F827
:1025B000373003F00403002B01D00A237FE200230D
:1025C0007DE2BB6B002283F80022FB6BDAB2BB6BAF
:1025D00083F80122BB6B93F801321846FEF78AFCA0
:1025E000034687F8373097F8373003F00103002BA4
:1025F00001D0032363E2FB79002B07D097F8373033
:1026000003F00403002B01D00A2358E200233B65AA
:10261000396DB86BFFF728FF034687F8573097F8F6
:102620005730012B53D100233B6428E0BA6B3B6C3D
:102630001B0103F5DF7313443B633B6B04331B78CF
:10264000002B12D03B6B0B331B781A063B6B0A3303
:102650001B781B041A433B6B09331B781B02134383
:102660003A6B083212781A4300E000223B6C9B0060
:1026700058333B4443F8442C3B6C01333B643B6C84
:10268000032BD3D900233B643B6C002B02D03B6C63
:10269000013B3B643B6C9B0058333B4453F8443C48
:1026A0003B653B6D002B05D0396DB86BFFF7DCFE49
:1026B000034600E0022387F8573097F85730002B85
:1026C00005D03B6C01333B643B6C032BE2D997F89C
:1026D0005730032B01D10123F1E197F85730002B3C
:1026E00001D00D23EBE1BB6B1B7B1BB21B021AB2AB
:1026F000BB6BDB7A1BB213431BB2B3F5007F01D077
:102700000D23DCE1BB6BDB7D1BB21B021AB2BB6B82
:102710009B7D1BB213431BB29BB2FB64FB6C002B73
:1027200012D1BB6B93F827301A06BB6B93F8263097
:102730001B041A43BB6B93F825301B021343BA6B7F
:1027400092F824201343FB64BB6BFA6CC3F8182285
:10275000BB6B1A7CBB6B83F80322BB6B93F8033211
:10276000012B06D0BB6B93F80332022B01D00D2353
:10277000A5E1BB6B93F803321A46FB6C02FB03F333
:10278000FB64BB6B5A7BBB6B83F80222BB6B93F879
:102790000232002B0AD0BB6B93F802321A46BB6B95
:1027A00093F80232013B1340002B01D00D2386E148
:1027B000BB6B9B7C1BB21B021AB2BB6B5B7C1BB25C
:1027C00013431BB29AB2BB6BA3F80822BB6BB3F8DE
:1027D000083203F00F039BB2002B03D00D236EE1F0
:1027E000503C0020BB6B1B7D1BB21B021AB2BB6BA3
:1027F000DB7C1BB213431BB29BB2BB64BB6C002BD4
:1028000012D1BB6B93F823301A06BB6B93F82230BE
:102810001B041A43BB6B93F821301B021343BA6BA2
:1028200092F820201343BB64BB6BDB7B1BB21B0203
:102830001AB2BB6B9B7B1BB213431BB2FB85FB8D98
:10284000002B01D10D233AE1FA8DFB6C1344BA6BD6
:10285000B2F80822120992B21344BB62BA6CBB6A86
:102860009A4201D20D232AE1BA6CBB6AD31ABA6B21
:1028700092F80222B3FBF2F37B627B6A002B01D158
:102880000D231CE1012387F857307B6A40F6F5726F
:10289000934202D9022387F857307B6A4FF6F572CC
:1028A000934202D9032387F857307B6A9A1CBB6B8B
:1028B000C3F81422BB6B3A6DC3F81C22FA8D3B6D32
:1028C0001A44BB6BC3F820223A6DBB6A1A44BB6B37
:1028D000C3F8282297F85730032B21D1BB6BB3F8EC
:1028E0000832002B01D00D23E9E0BB6B93F82F30A9
:1028F0001A06BB6B93F82E301B041A43BB6B93F87C
:102900002D301B021343BA6B92F82C201A43BB6B79
:10291000C3F82422BB6BD3F814329B007B6425E000
:10292000BB6BB3F80832002B01D10D23C7E0BB6BA2
:10293000D3F82022FB6C1A44BB6BC3F8242297F80F
:102940005730022B04D1BB6BD3F814325B000CE080
:10295000BB6BD3F8142213465B0013445A08BB6BBD
:10296000D3F8143203F0010313447B64BB6BD3F838
:1029700018227B6C03F2FF135B0A9A4201D20D23EB
:102980009DE0BB6B4FF0FF32C3F81022BB6BD3F856
:102990001022BB6BC3F80C22BB6B802283F805228C
:1029A00097F85730032B79D1BB6B93F831301BB2BA
:1029B0001B021AB2BB6B93F830301BB213431BB22D
:1029C000012B6BD13B6D01331946B86BFEF73BFD14
:1029D0000346002B62D1BB6B002283F80522BB6B40
:1029E00093F8FF311BB21B021AB2BB6B93F8FE3196
:1029F0001BB213431BB2344A93424FD1BB6BDB78FB
:102A00001A06BB6B9B781B041A43BB6B5B781B02DB
:102A10001343BA6B127813432C4A93423ED1BB6BDB
:102A200093F8E7311A06BB6B93F8E6311B041A439F
:102A3000BB6B93F8E5311B021343BA6B92F8E421A8
:102A40001343234A934229D1BB6B93F8EB311A0607
:102A5000BB6B93F8EA311B041A43BB6B93F8E93163
:102A60001B021343BA6B92F8E8211A43BB6BC3F8FD
:102A70001022BB6B93F8EF311A06BB6B93F8EE3163
:102A80001B041A43BB6B93F8ED311B021343BA6B63
:102A900092F8EC211A43BB6BC3F80C22BB6B97F87E
:102AA000572083F800220B4B1B8801339AB2094B45
:102AB0001A80084B1A88BB6BA3F80622002318461D
:102AC0005837BD4680BD00BF55AAFFFF5252614135
:102AD00072724161543C002080B584B000AF7860D0
:102AE0007B68FB60FB68002B1DD0FB681B68002B1C
:102AF00019D0FB681B6893F80032002B13D0FB68D9
:102B00001B68B3F80622FB689B889A420BD1FB68CE
:102B10001B6893F801321846FEF7CAFA034603F021
:102B20000103002B01D0092300E0002318461037D1
:102B3000BD4680BD80B588B000AFF860B96013466F
:102B4000FB71BB683B6107F110031846FFF748FCB7
:102B5000F861FB69002B01DA0B232AE0174AFB69B5
:102B600052F82330BB61BB69002B03D0BB69002244
:102B700083F80022FB68002B03D0FB68002283F857
:102B80000022FA680D49FB6941F82320FB68002BFD
:102B900002D0FB79012B01D000230AE007F10801E4
:102BA00007F10C0300221846FFF7CAFC0346FB7529
:102BB000FB7D18462037BD4680BD00BF503C00203D
:102BC00080B592B000AFF860B9601346FB71FB6846
:102BD000002B01D1092334E1FB6800221A60FB7944
:102BE00003F01F03FB71FB7923F00103DAB207F155
:102BF000080107F11C031846FFF7A2FC034687F8FB
:102C0000473097F84730002B40F0198107F1100347
:102C10007B63BA6807F11C0311461846FFF778FB7F
:102C2000034687F847303B6B3B6497F84730002BEF
:102C300005D13B6C002B02D1062387F84730FB7986
:102C400003F01C03002B00F0928097F84730002B14
:102C500012D097F84730042B07D107F11C03184610
:102C6000FFF7F2F9034687F84730FB7943F0080392
:102C7000FB713B6B3B6412E03B6C0B331B7803F046
:102C80001103002B03D0072387F8473007E0FB79B7
:102C900003F00403002B02D0082387F8473097F88D
:102CA0004730002B40F08180FB7903F00803002BB4
:102CB0007BD0664BFB633B6C0E33FA6BD2B21A705F
:102CC000FB6B9BB21B0A9AB23B6C0F33D2B21A70E9
:102CD000FB6B1A0C3B6C1033D2B21A70FB6B1A0EE2
:102CE0003B6C1133D2B21A703B6C0B3300221A705A
:102CF0003B6C1C3300221A703B6C1D3300221A708F
:102D00003B6C1E3300221A703B6C1F3300221A707A
:102D1000FB69396C1846FFF7F7F8B8630021386C87
:102D2000FFF721F9FB69012283F80422BB6B002B1A
:102D30003BD0FB69D3F82C32FB63FB69B96B1846B7
:102D4000FEF745FE034687F8473097F84730002BDB
:102D50002BD1FB69BA6B013AC3F80C22FB69F96B02
:102D60001846FEF770FB034687F847301DE097F8DA
:102D70004730002B19D13B6C0B331B7803F0100349
:102D8000002B03D0042387F847300EE0FB7903F0D3
:102D90000203002B09D03B6C0B331B7803F00103BB
:102DA000002B02D0072387F8473097F84730002BD5
:102DB00010D1FB7903F00803002B03D0FB7943F01B
:102DC0002003FB71FB69D3F82C22FB68DA61FB68F6
:102DD0003A6C1A6297F84730002B30D1FB68FA79C9
:102DE0009A71FB680022DA71FB69396C1846FFF7AB
:102DF0008BF80246FB681A613B6C1F331B781A067E
:102E00003B6C1E331B781B041A433B6C1D331B7831
:102E10001B0213433A6C1C3212781A43FB68DA60C7
:102E2000FB6800229A60FB6800229A61FA69FB68DD
:102E30001A60FB681B68B3F80622FB689A8097F853
:102E4000473018464837BD4680BD00BF0000425D90
:102E500080B58CB000AFF860B9607A603B60BB6849
:102E60003B623B6800221A60F868FFF735FE0346B4
:102E7000FB77FB7F002B01D0FB7FFCE0FB68DB795D
:102E8000002B02D0FB68DB79F5E0FB689B7903F04F
:102E90000103002B01D10723EDE0FB68DA68FB6832
:102EA0009B68D31ABB617A68BB699A4240F2DE80A4
:102EB000BB697B60DAE0FB689B68C3F30803002B07
:102EC00040F09780FB689B685B0ADAB2FB681B687E
:102ED00093F80232013BDBB21340FB75FB7D002B04
:102EE00024D1FB689B68002B03D1FB681B69FB6244
:102EF00008E0FB681A68FB685B6919461046FEF734
:102F00009EFBF862FB6A012B04D8FB680222DA718F
:102F10000223B0E0FB6AB3F1FF3F04D1FB6801225A
:102F2000DA710123A7E0FB68FA6A5A61FB681A6844
:102F3000FB685B6919461046FEF760FB38613B6928
:102F4000002B04D1FB680222DA71022393E0FB7D9F
:102F50003A6913443B617B685B0A7B627B6A002BA6
:102F600044D0FA7D7B6A1344FA68126892F8022210
:102F7000934207D9FB681B6893F802321A46FB7D1F
:102F8000D31A7B62FB681B6893F801027B6A3A697B
:102F9000396AFEF795F80346002B04D0FB6801223E
:102FA000DA71012367E0FB681B6893F80432002B99
:102FB00018D0FB681B68D3F82C223B69D31A7A6AB5
:102FC0009A420FD9FB681B68D3F82C223B69D31AAD
:102FD0005B023A6AD018FB681B684FF4007219460E
:102FE000FEF770F97B6A5B02BB622BE0FB683A6913
:102FF0009A61FB689B68C3F30803C3F50073BB6267
:10300000BA6A7B689A4201D97B68BB62FB681A681E
:10301000FB689B6919461046FEF715FA0346002B1C
:1030200004D0FB680122DA71012324E0FB681A68EE
:10303000FB689B68C3F308031344BA6A1946386AED
:10304000FEF740F93A6ABB6A13443B62FB689A6830
:10305000BB6A1A44FB689A603B681A68BB6A1A44E8
:103060003B681A607A68BB6AD31A7B607B68002B66
:103070007FF421AF002318463037BD4680BD80B5B0
:103080008AB000AFF860B9607A603B60BB68BB6132
:103090003B6800221A60F868FFF71EFD0346FB75C7
:1030A000FB7D002B01D0FB7D54E1FB68DB79002B1D
:1030B00002D0FB68DB794DE1FB689B7903F00203EA
:1030C000002B01D1072345E1FB689A687B681A440D
:1030D000FB689B689A4280F0258100237B6021E198
:1030E000FB689B68C3F30803002B40F0D980FB68A2
:1030F0009B685B0ADAB2FB681B6893F80232013BFB
:10310000DBB21340BB75BB7D002B39D1FB689B68DC
:10311000002B0DD1FB681B697B627B6A002B10D1F1
:10312000FB681B6800211846FEF7ABFC786208E0DC
:10313000FB681A68FB685B6919461046FEF7A1FC3C
:1031400078627B6A002B00F0F2807B6A012B04D14D
:10315000FB680222DA710223FCE07B6AB3F1FF3FD5
:1031600004D1FB680122DA710123F3E0FB687A6A7B
:103170005A61FB681B69002B02D1FB687A6A1A61ED
:10318000FB681B68D3F82C22FB689B699A420CD120
:10319000FB681B681846FEF70DF90346002B04D0A8
:1031A000FB680122DA710123D4E0FB681A68FB682E
:1031B0005B6919461046FEF721FA38613B69002B1E
:1031C00004D1FB680222DA710223C3E0BB7D3A69B5
:1031D00013443B617B685B0AFB61FB69002B44D0B5
:1031E000BA7DFB691344FA68126892F8022293428E
:1031F00007D9FB681B6893F802321A46BB7DD31AC5
:10320000FB61FB681B6893F80102FB693A69B969C5
:10321000FDF7A8FF0346002B04D0FB680122DA71FA
:10322000012397E0FB681B68D3F82C223B69D31A73
:10323000FA699A4215D9FB681B681846FB681B6837
:10324000D3F82C223B69D31A5B02BA6913444FF4BA
:1032500000721946FEF736F8FB681B68002283F8F7
:103260000422FB695B023B6248E0FB689A68FB68EA
:10327000DB689A4211D3FB681B681846FEF79AF880
:103280000346002B04D0FB680122DA71012361E0C0
:10329000FB681B683A69C3F82C22FB683A699A619B
:1032A000FB689B68C3F30803C3F500733B623A6A8B
:1032B0007B689A4201D97B683B62FB681A68FB68AD
:1032C0009B6919461046FEF7BEF80346002B04D052
:1032D000FB680122DA7101233CE0FB681A68FB6895
:1032E0009B68C3F3080313443A6AB9691846FDF7AB
:1032F000E9FFFB681B68012283F80422BA693B6A74
:103300001344BB61FB689A683B6A1A44FB689A6085
:103310003B681A683B6A1A443B681A607A683B6AE1
:10332000D31A7B607B68002B7FF4DAAE00E000BF2D
:10333000FB689A68FB68DB689A4203D9FB689A6865
:10334000FB68DA60FB689B7943F02003DAB2FB6824
:103350009A71002318462837BD4680BD80B586B0D7
:1033600000AF78607868FFF7B7FB0346FB75FB7D1D
:10337000002B77D17B689B7903F02003002B71D061
:103380007B681A687B68DB6919461046FEF75BF8B4
:103390000346FB75FB7D002B64D17B681B6A3B6198
:1033A0003B690B331A783B690B3342F02002D2B2EF
:1033B0001A707B68DA683B691C33D2B21A707B687A
:1033C000DB689BB21B0A9AB23B691D33D2B21A70FA
:1033D0007B68DB681A0C3B691E33D2B21A707B68BB
:1033E000DB681A0E3B691F33D2B21A707B681B6907
:1033F00019463869FEF7B7FD1D4BFB603B69163374
:10340000FA68D2B21A70FB689BB21B0A9AB23B6987
:103410001733D2B21A70FB681A0C3B691833D2B258
:103420001A70FB681A0E3B691933D2B21A703B69E5
:10343000123300221A703B69133300221A707B6822
:103440009B7923F02003DAB27B689A717B681B6852
:10345000012283F804227B681B681846FEF721F8D6
:103460000346FB75FB7D18461837BD4680BD00BF7F
:103470000000425D80B584B000AF78607868FFF7E7
:103480006DFF0346FB73FB7B002B0AD17868FFF7C7
:1034900023FB0346FB73FB7B002B02D17B680022DE
:1034A0001A60FB7B18461037BD4680BD80B588B0DA
:1034B00000AF786039607868FFF70EFB0346FB7554
:1034C000FB7D002B01D0FB7DEFE07B68DB79002BDF
:1034D00002D07B68DB79E8E07B68DB683A689A4277
:1034E00008D97B689B7903F00203002B02D17B682B
:1034F000DB683B607B689B683B610023BB617B684A
:10350000BA699A603B68002B00F0AF807B681B684B
:1035100093F802325B02FB603B69002B1BD03B68D7
:103520005A1EFB68B2FBF3F23B69591EFB68B1FB04
:10353000F3F39A420FD33B695A1EFB685B421A4071
:103540007B689A607B689B683A68D31A3B607B68AB
:103550005B69FB6123E07B681B69FB61FB69002BF6
:103560001AD17B681B6800211846FEF78AFAF861B9
:10357000FB69012B04D17B680222DA71022394E0FB
:10358000FB69B3F1FF3F04D17B680122DA710123AB
:103590008BE07B68FA691A617B68FA695A61FB699A
:1035A000002B62D03EE07B689B7903F00203002B86
:1035B0000CD07B681B68F9691846FEF762FAF8615F
:1035C000FB69002B09D1FB683B602FE07B681B681F
:1035D000F9691846FEF733F8F861FB69B3F1FF3F6C
:1035E00004D17B680122DA7101235EE0FB69012BC3
:1035F00006D97B681B68D3F81432FA699A4204D35F
:103600007B680222DA7102234FE07B68FA695A6113
:103610007B689A68FB681A447B689A603A68FB6822
:10362000D31A3B603A68FB689A42BCD87B689A68B8
:103630003B681A447B689A603B68C3F30803002B1D
:1036400013D07B681B68F9691846FDF7D7FFB8618E
:10365000BB69002B04D17B680222DA71022324E0CB
:103660003B685B0ABA691344BB617B689B68C3F320
:103670000803002B07D07B689B69BA699A4202D085
:103680007B68BA699A617B689A687B68DB689A4252
:103690000AD97B689A687B68DA607B689B7943F01B
:1036A0002003DAB27B689A71FB7D18462037BD464D
:1036B00080BD80B58EB000AF78603960391D07F1EC
:1036C000180300221846FEF73BFF034687F8373001
:1036D00097F83730002B20D107F10C033B637A6851
:1036E00007F1180311461846FEF712FE034687F845
:1036F000373097F83730002B0FD1FB6A002B09D0F9
:103700003B68002B09D007F1180339681846FEF70B
:10371000CEFC02E0062387F8373097F8373018469A
:103720003837BD4680BD000020F0030110F00300D3
:10373000C0F1000051F8043B00F1040C4FEACC0C3E
:103740006FF000021CBF22FA0CF213434FF0010C81
:103750004CEA0C2C4CEA0C4CA3EB0C0222EA0302C0
:1037600012EACC1204BF51F8043B0430F4D0C2F189
:10377000000102EA0102B2FA82F2C2F11F0200EB7A
:10378000D2007047032A30B415D941EA0004A407D7
:1037900084460B4604D0541E0FE0043A032A08D98D
:1037A0001946604653F8044B5CF8045BA542F4D01C
:1037B000F1E760461946541E7AB1431E01390219D9
:1037C00001E09A4209D013F8010F11F801CF6045CA
:1037D000F7D0A0EB0C0030BC7047002030BC704725
:1037E00080EA0102844612F0030F4FD111F0030F5B
:1037F00032D14DF8044D11F0040F51F8043B0BD0B9
:10380000A3F101329A4312F0803F04BF4CF8043B0D
:1038100051F8043B16D100BF51F8044BA3F101321B
:103820009A4312F0803FA4F101320BD14CF8043BD3
:10383000A24312F0803F04BF51F8043B4CF8044B04
:10384000EAD023460CF8013B13F0FF0F4FEA332375
:10385000F8D15DF8044B704711F0010F06D011F854
:10386000012B0CF8012B002A08BF704711F0020F42
:10387000BFD031F8022B12F0FF0F16BF2CF8022B2D
:103880008CF8002012F47F4FB3D1704711F8012B50
:103890000CF8012B002AF9D1704700BF08B410B50D
:1038A000002A04469DB034DB4FF4027C4FF0000345
:1038B000ADF814C01B934FF6FF7C0291069120AB2C
:1038C00015D0013A0492079202A91F9A0193ADF80C
:1038D00016C000F051F9421C01DA8B23236000224C
:1038E000029B1A701DB0BDE8104001B070470492F1
:1038F000079202A91F9A0193ADF816C000F03CF997
:10390000431C01DA8B2323601DB0BDE8104001B0D9
:1039100070478B234FF0FF302360F5E70CB410B5F0
:10392000204B00291C689CB036DB4FF000034FF49D
:1039300002721B934FF6FF7C02900690ADF81420A4
:103940001FAB16D001391E9A04910791204602A997
:103950000193ADF816C000F00FF9421C01DA8B2379
:1039600023600022029B1A701CB0BDE8104002B018
:1039700070470491079120461E9A02A90193ADF861
:1039800016C000F0F9F8431C01DA8B2323601CB049
:10399000BDE8104002B070478B234FF0FF3023602A
:1039A000F5E700BF1C0000202DE9F0471D468F6899
:1039B0000C46AF4216460B6836D8B1F90CC01CF461
:1039C000906F0ED13D46184631462A4600F0BCFDA8
:1039D0000020A368DF1B2368A7602B442360BDE899
:1039E000F0874A69096902EB42025F1A02EBD27260
:1039F0006B1C52103B44934292BF914699461A4623
:103A00001CF4806F804611D0114600F03FFA8246C8
:103A100000B33A46216900F0B9FAA38923F4906310
:103A200043F08003A38105E02F46CCE700F082FB42
:103A3000824658B10AEB0703A9EB0707A760C4F851
:103A400010A02F46C4F814902360BCE740462169BB
:103A500000F012FB0C22A3894FF0FF3043F040032B
:103A6000C8F80020A381BAE72DE9F04F936883B02E
:103A7000924617680190002B76D04FF0000B0C4651
:103A80005D468B680A6848E0B4F90CC01CF4906F7E
:103A90002FD0D4E90403A2EB000803EB430202EBAE
:103AA000D27208F1010152102944914292BF91460D
:103AB00089460A461CF4806F39D01146019800F0FF
:103AC000E5F9064600283DD04246216900F05EFA3D
:103AD000A28922F4906242F08002A28106EB0800E3
:103AE000A9EB08022661A8462E46A2602060C4F811
:103AF00014903246594600F027FDDAF80810A36802
:103B00002268A3EB08033244491BA3602260CAF871
:103B1000081049B3D7E900B5083798461046002D7C
:103B2000F8D09D421E46AFD2A8462E46E1E7014698
:103B3000019800F0FFFA06460028CFD101982169CC
:103B400000F09AFA0C21A389019D43F040032960FB
:103B50000022A3814FF0FF300023CAF80820CAF8E2
:103B6000043003B0BDE8F08F00200023CAF8043011
:103B700003B0BDE8F08F00BF2DE9F04F1C468B89E4
:103B800089461D06824693469DB003D50B69002BDE
:103B900000F0EE80002343F2200209939BF80030EE
:103BA00001277C4E0394ADF82920002B71D05D468F
:103BB00003E015F8013F002B73D0252BF9D1B5EBAD
:103BC0000B0471D12A78002A63D000234FF0FF3212
:103BD0000135CDE90523049307938DF853301A93EB
:103BE00006E02546049B801B07FA00F0034304937C
:103BF0002C46052214F8011B304600F0D5F8A346E8
:103C00000028EED1049BD90644BF20228DF8532012
:103C10001A0748BF2B22297848BF8DF853202A293C
:103C20004FD1039A11680432002903927BDB07917C
:103C300069782E295BD0584C0322204600F0B4F856
:103C400038B14022049B001B824013430BF1010B4F
:103C500004931BF8011B062250488DF8281000F031
:103C6000A3F8002865D04E4B002B55D003A9009136
:103C70004A4650464B4B04A9AFF300808046B8F14A
:103C8000FF3F06D0099B434409939BF80030002B6B
:103C90008DD1B9F80C305B0679D409981DB0BDE818
:103CA000F08FB5EB0B04F4D023465A4649465046F4
:103CB000FFF77AFE0130ECD0099B2A782344099360
:103CC00081E7A1F13002092A88BFAB46B1D8079B32
:103CD00000E00134217803EB830302EB4303A1F1FD
:103CE0003002092AF5D92E29A3460793A3D19BF8C0
:103CF00001102A2927D1039B0BF102001A68043313
:103D0000002A0393B8BF4FF0FF339BF802100592CF
:103D10008346B8BF05938EE7039B073323F0070361
:103D200008330393AEE7494243F00203079104933B
:103D30007EE703A900914A4650461A4B04A900F0B9
:103D4000BDFA80469BE70023A1F13002092A0BF15E
:103D5000010B05933FF66FAF1BF8011F03EB8303C5
:103D600002EB4303A1F13002092AF5D9059362E77A
:103D7000402100F08BF8C9F80000C9F8100018B114
:103D80004023C9F8143005E70C23CAF800304FF07F
:103D9000FF3083E7304D0008384D00083C4D0008E7
:103DA00000000000A93900085FFA81FC810744D0B7
:103DB0000346511E22B909E09A0709D0013905D3FB
:103DC0001846027801336245F6D1704700207047EB
:103DD000184603290CD80029F8D00346014401E015
:103DE0008B42F3D0184613F8012B6245F8D1704787
:103DF00010B50CEB0C24024604EB044402E0043939
:103E0000032915D9104652F8043B6340A3F1013E43
:103E10002EEA030313F0803FF1D00346014401E092
:103E20008B4208D0184613F8012B6245F8D110BD1B
:103E300010460029F1D1002010BD1146C9E700BF8E
:103E400070B5114E054633680C46BBB12146284675
:103E500000F0F8FB431C01460CD0C41C24F0030402
:103E6000A04205D02846611A00F0ECFB013001D0D9
:103E7000204670BD4FF0FF34204670BD194600F05B
:103E8000E1FB3060E2E700BF583C00202DE9F84339
:103E9000CD1C25F0030508350C2D38BF0C25002D51
:103EA000064618DBA94216D8DFF8DC8000F048FB94
:103EB000D8F80420A2B1144603E0636822467BB11F
:103EC0001C4623685B1BF8D40B2B1FD894426368F5
:103ED00054D053600CE00C2333600020BDE8F8831D
:103EE00029463046FFF7ACFF431C044619D0056055
:103EF000304600F027FB04F10B00231D20F00700E3
:103F0000C21A1CBF1B1AA350BDE8F8836119944262
:103F1000256014BF5160C8F80410635163684B609A
:103F2000E6E7D8F804701FB33C467F68002FFBD14A
:103F300023683946304604EB030900F083FB8145D2
:103F400016D123683046ED1A2946FFF779FF013074
:103F50000ED02368D8F804202B442360536883B123
:103F6000A34203D01A465B689C42FBD10023B0E712
:103F70000C233046336000F0E5FAAEE7C8F80430B1
:103F8000B6E7C8F80470B3E7583C0020844641EA1D
:103F9000000313F0030349D1403A23D30B680360B5
:103FA0004B6843608B688360CB68C3600B690361B7
:103FB0004B6943618B698361CB69C3610B6A03629F
:103FC0004B6A43628B6A8362CB6AC3620B6B036387
:103FD0004B6B43638B6B8363CB6BC363403040316C
:103FE000403ADBD230320BD30B6803604B6843603E
:103FF0008B688360CB68C36010301031103AF3D205
:104000000C3205D351F8043B40F8043B043AF9D292
:10401000043208D0D2071CBF11F8013B00F8013B65
:1040200001D30B8803806046704700BF082A13D372
:104030008B07B1D010F00303AED0C3F10403D21A42
:10404000DB071CBF11F8013B00F8013BA4D331F89A
:10405000023B20F8023B9FE7043AD9D3013A11F81A
:10406000013B00F8013BF9D20B7803704B784370A9
:104070008B78837060467047002950D038B551F86E
:10408000043C0C1F002BB8BFE418054600F058FA9A
:10409000274A13682BB1A3420CD9216860188342C8
:1040A0002CD0284663601460BDE8384000F04ABA5E
:1040B000A3420FD81A465B68002BF9D1116850183B
:1040C000844217D02CD3636054602846BDE8384042
:1040D00000F038BA11685018A04214D020D82168D6
:1040E00060188342EFD118685B680844C4E9000394
:1040F0005460EAE723680B441360E6E718685B68DE
:1041000008442060CDE720680144501883421160C4
:10411000DBD1D3E900040144C2E90014D5E77047BC
:104120000C2328462B60BDE8384000F00BBA00BFD6
:104130005C3C00202DE9F041144641B30AB3064629
:104140000D4600F091FA8442074602D8B4EB500FB6
:1041500013D821463046FFF799FE804650B1BC4245
:104160002246294628BF3A46FFF710FF2946304627
:10417000FFF782FF4046BDE8F081A8464046BDE813
:10418000F081A046FFF778FF4046BDE8F081114678
:10419000BDE8F041FFF77ABE2DE9F84F92461F4681
:1041A0000A698B680C469A42B8BF1A46CAF80020C2
:1041B00091F843300646DDF8289013B10132CAF871
:1041C0000020226891065FD5DAF800300233CAF881
:1041D0000030226812F0060F11461DD1E1689942A5
:1041E000D8BF114618DD4FF0000804F1190B05E0A7
:1041F000E568DAF80030ED1A45450CDD01235A4632
:1042000039463046C847013008F10108F0D14FF077
:10421000FF30BDE8F88F216894F84330003B18BFA9
:1042200001238A060AD53021E21882F8431094F857
:1042300045105A1C2244023382F843103946304656
:1042400004F14302C8470130E1D0D4E902202368D9
:10425000DAF8005003F00603042B21691BD08A42D0
:1042600020DD4FF00008521A904400251A3401E076
:10427000454517DA0123224639463046C847013002
:1042800005F10105F4D1C2E712F0060F0DD0003B95
:1042900018BF0123D2E7401B8A4220EAE078E2DC23
:1042A0000028E2DC0020BDE8F88FE168DAF8003091
:1042B0009942D8BF114696DCAEE700BF2DE9F04722
:1042C00017460A7E84B00C46064698460C9D01F1BE
:1042D000430C002A35D0A2F15803D9B2202969D85D
:1042E000202B67D8DFE813F0E60066006600660062
:1042F0006600660066006600660066006600AC0048
:104300007000660066006600660070006600660069
:104310006600660021008300C60066006600B600E5
:104320006600830066006600EC002B682268181D9A
:104330006169286010061B6802D4520600F1E08013
:1043400019600023E14623613B4621463046CDF803
:10435000008003AAFFF720FF013020D04A463946EB
:1043600030462369C047013019D02368E0689B07B5
:10437000DDF80C9018D5484516DD002504F1190A22
:1043800004E0E068A0EB0903AB420DDD01235246D7
:1043900039463046C047013005F10105F1D14FF0F3
:1043A000FF3004B0BDE8F0874845B8BF484604B0C8
:1043B000BDE8F087012084F8422004F1420900237F
:1043C000206184F84330BFE72A682368111D18066E
:1043D000296002D4590600F1958010680146002832
:1043E0006268C0F293804FF00A0E534815E02068CF
:1043F0002B6810F0800F53F8041B02D1400648BF11
:1044000089B26F2A14BF4FF00A0E4FF0080E4A48C7
:104410002B600023626884F84330002AA26051DBDD
:10442000236823F00403236000294BD1002A7BD1A9
:10443000E146BEF1080F56D0ACEB0903236183E7D8
:104440002A680120116804322A6004F1420984F8C4
:104450004210B4E72B6800211A1D2A60D3F800909F
:1044600062684846FFF7A0FC002863D0A0EB090073
:104470006060A4E7236843F02003236078222F487C
:1044800084F845202A6813F0800F52F8041B03D1EA
:1044900013F0400F18BF89B22A60DA0744BF43F017
:1044A0002003236019B9236823F0200323604FF011
:1044B000100EAEE75823204884F845302368E1E722
:1044C0002368DBE77546E146B1FBF5F30A4605FBD9
:1044D000131A194610F80A30AA4209F8013DF3D21E
:1044E000BEF1080FA8D12368DD07A5D5626823694E
:1044F0009A42A1DC302309F1FF3989F800309BE7AB
:1045000019801EE7B2F90010084668E72D20002A3E
:10451000A26084F8430002DB23F0040323600A2531
:104520000548AE464942CEE7037804F1420984F8D3
:1045300042307EE7606842E7444D0008584D00086D
:10454000704700BF704700BF88420ED98B18834266
:104550000BD900EB020C002A6DD0624613F801CD96
:10456000994202F801CDF9D170470F2A0FD80346BE
:1045700002F1FF3C002A5ED00CF1010C013B8C449F
:1045800011F8012B614503F8012FF9D1704740EA7A
:1045900001039B0750D1A2F1100370B501F1200C6B
:1045A00023F00F0501F1100E00F11004AC441B09BB
:1045B0005EF8105C0EF1100E44F8105C5EF81C5CA6
:1045C000103444F81C5C5EF8185C44F8185C5EF823
:1045D000145CE64544F8145CEAD1013312F00C0F88
:1045E00001EB031102F00F0400EB031328D08E46F9
:1045F000043C24F003064FEA940C1E441C1F5EF892
:10460000045B44F8045FB442F9D10CF1010402F0F8
:10461000030203EB840301EB840102F1FF3C4AB186
:104620000CF1010C013B8C4411F8012B614503F89E
:10463000012FF9D170BD7047034602F1FF3C9BE7A3
:104640002246EAE7002238B5064D044608462A60AD
:1046500000F012F8431C00D038BD2B68002BFBD0B3
:10466000236038BD603C002051F8043C181F002B2B
:10467000BCBF0B58C0187047044A05491368002B8B
:1046800008BF0B461844106018467047643C002071
:10469000683C002020205B6462675D206F76657255
:1046A00063617074757265210D0A0020205B64627D
:1046B000675D20636865636B73756D207361693A2C
:1046C0002025752025752025752025752025750D3B
:1046D0000A0020205B6462675D202573203D203046
:1046E00078253032580D0A004F4B004C4F49000DD1
:1046F0000A3D3D3D2042544C204B5456584C202DF1
:104700002053544D333246313033205344202B2034
:104710004448543131202B20417564696F203D3D60
:104720003D0D0A005B53445D204D6F756E74206C27
:104730006F692025642C20746875206C61692E2EA9
:104740002E0D0A005B53445D204D6F756E74204F33
:104750004B2E205245433D504231322C20504C418B
:10476000593D504231330D0A0020205B6462675D81
:104770002074797065202564206E66617420256C34
:1047800075206661746261736520256C75206469AB
:10479000726261736520256C752064617461626169
:1047A000736520256C75206373697A652025640D17
:1047B0000A0020205B6462675D20636C757374324D
:1047C0007365637428313829203D20256C752028B5
:1047D0006D6F6E6720323238290D0A0020205B642D
:1047E00062675D20286D6F6E673A2074797065206E
:1047F00032206E6661742031363334352066617440
:10480000626173652034206469726261736520316E
:104810003332206461746162617365203136342003
:104820006373697A652034290D0A0020205B646275
:10483000675D20646F6320464154206C616E2025C3
:104840006420282564293A00202530325800202091
:104850005B6462675D20286D6F6E673A2046382082
:104860004646204646204646203033203030203011
:104870003420303020303520303020303620303079
:10488000290D0A00303132333435363738390D0AC4
:104890000020205B6462675D203132206B792074D8
:1048A000752055415254203D2025752075732028D0
:1048B0006D6F6E67207E31303430290D0A00202064
:1048C0005B6462675D203130306D733A2054494D2E
:1048D00031207469636B202B256C752C2053797300
:1048E0005469636B202B256C7520286D6F6E6720D3
:1048F0007E313030290D0A0020205B743D256C7517
:10490000735D0D0A0020205B6462675D207468752A
:104910002073746172743D256C756D73202D3E207B
:1049200025640D0A005B44485431315D204C6F69A9
:1049300020646F6320282564292C20736F207375F1
:104940006F6E3D25642C206B686F616E673A0020A6
:104950002575005B44485431315D20743D256C75EC
:104960007320204E6869657420646F3D2564432080
:1049700020446F20616D3D256425250D0A004441CA
:1049800054412E435356005B53445D204C6F6920C5
:104990006D6F20444154412E4353560D0A00202090
:1049A0005B6462675D206D6F20444154412E435328
:1049B000563A2073636C7573743D256C752073696A
:1049C0007A653D256C750D0A0020205B6462675D89
:1049D00020444154412E43535620686F6E6720286F
:1049E00073636C7573743D256C752073697A653DCE
:1049F000256C7529202D3E2074616F206C61690D36
:104A00000A0020205B6462675D2067686920686532
:104A100061646572206C6F692025642062773D2592
:104A2000750D0A00256C752C25642C25640D0A0073
:104A30005B53445D204C6F69206768692044415492
:104A4000412E43535620282564290D0A005B534408
:104A50005D2044612067686920444154412E4353DE
:104A6000563A20256C7520627974652028257329B3
:104A70000D0A00524543253032642E574156005BE3
:104A80005245435D2044616E672067686920257345
:104A90002028256C7520487A2C20256C75206D7394
:104AA000292076616F2052414D2E2E2E0D0A005B7B
:104AB0005245435D2044612074687520256C752043
:104AC0006D61752C2064616E672067686920726172
:104AD000207468652E2E2E0D0A005B5245435D2022
:104AE0004C6F692074616F2066696C650D0A005710
:104AF000415645666D7420005B5245435D20586FFA
:104B00006E673A2025732C20256C752062797465B8
:104B100020616D207468616E6820282573290D0A54
:104B2000005B504C41595D204B686F6E6720746884
:104B300061792025730D0A005249464600574156B7
:104B400045005B504C41595D204B686F6E6720708B
:104B5000686169205741560D0A005B504C41595D10
:104B60002046696C65206C6F690D0A005B504C41F2
:104B7000595D2043686920686F2074726F20574127
:104B80005620382D626974206D6F6E6F0D0A0064B7
:104B9000617461005B504C41595D2025733A2025BA
:104BA0006C7520487A2C20646F6320256C75206218
:104BB0007974652076616F2052414D2E2E2E0D0A9C
:104BC000005B504C41595D20586F6E672028256C62
:104BD00075206D6175290D0A007479706520534444
:104BE00076310074797065204D4D43004D49534F27
:104BF0002069646C652028435320686967682C200D
:104C00006D6F6E6720307846462900434D44300072
:104C1000434D443800696E697400434D4431360099
:104C20006469736B5F7772697465204C4F492073B8
:104C30006563746F72006469736B5F777269746522
:104C4000206F6B20736563746F7200434D44323480
:104C5000206C6F6900646174612072657370007804
:104C60006D69745F626C6F636B206C6F692C20736D
:104C70006563746F720054686F695F6769616E5F26
:104C8000732C4E686965745F646F5F432C446F5F7B
:104C9000616D5F250D0A00003C00A00014000000BB
:104CA000809A90418E418F804545454949498E8F74
:104CB0009092924F994F555559999A9B9C9D9E9FC2
:104CC00041494F55A5A5A6A7A8A9AAABAC21AEAF4F
:104CD000B0B1B2B3B4B5B6B7B8B9BABBBCBDBEBF5C
:104CE000C0C1C2C3C4C5C6C7C8C9CACBCCCDCECF4C
:104CF000D0D1D2D3D4D5D6D7D8D9DADBDCDDDEDF3C
:104D0000E0E1E2E3E4E5E6E7E8E9EAEBECEDEEEF2B
:104D1000F0F1F2F3F4F5F6F7F8F9FAFBFCFDFEFF1B
:104D2000222A2B2C3A3B3C3D3E3F5B5D7C7F0000C2
:104D3000232D302B20000000686C4C006566674511
:104D40004647000030313233343536373839414246
:104D500043444546000000003031323334353637A5
:0C4D600038396162636465660000000081
:084D6C0020F2FF7F01000000AE
:104D7400504C41592E5741560000000000000000DD
:104D84001E000000010000000100000020000020BF
:104D9400000000000000000068000000D0000000D7
:104DA40000000000000000000000000000000000FF
:104DB40000000000000000000000000000000000EF
:104DC40000000000000000000000000000000000DF
:0C4DD400000000000000000000000000D3
:0400000508000130BE
:00000001FF
